{
  "_format": "hh-sol-artifact-1",
  "contractName": "NFTMarketplace",
  "sourceName": "contracts/NFTMarketplace.sol",
  "abi": [
    {
      "inputs": [],
      "stateMutability": "nonpayable",
      "type": "constructor"
    },
    {
      "inputs": [
        {
          "internalType": "address",
          "name": "sender",
          "type": "address"
        },
        {
          "internalType": "uint256",
          "name": "tokenId",
          "type": "uint256"
        },
        {
          "internalType": "address",
          "name": "owner",
          "type": "address"
        }
      ],
      "name": "ERC721IncorrectOwner",
      "type": "error"
    },
    {
      "inputs": [
        {
          "internalType": "address",
          "name": "operator",
          "type": "address"
        },
        {
          "internalType": "uint256",
          "name": "tokenId",
          "type": "uint256"
        }
      ],
      "name": "ERC721InsufficientApproval",
      "type": "error"
    },
    {
      "inputs": [
        {
          "internalType": "address",
          "name": "approver",
          "type": "address"
        }
      ],
      "name": "ERC721InvalidApprover",
      "type": "error"
    },
    {
      "inputs": [
        {
          "internalType": "address",
          "name": "operator",
          "type": "address"
        }
      ],
      "name": "ERC721InvalidOperator",
      "type": "error"
    },
    {
      "inputs": [
        {
          "internalType": "address",
          "name": "owner",
          "type": "address"
        }
      ],
      "name": "ERC721InvalidOwner",
      "type": "error"
    },
    {
      "inputs": [
        {
          "internalType": "address",
          "name": "receiver",
          "type": "address"
        }
      ],
      "name": "ERC721InvalidReceiver",
      "type": "error"
    },
    {
      "inputs": [
        {
          "internalType": "address",
          "name": "sender",
          "type": "address"
        }
      ],
      "name": "ERC721InvalidSender",
      "type": "error"
    },
    {
      "inputs": [
        {
          "internalType": "uint256",
          "name": "tokenId",
          "type": "uint256"
        }
      ],
      "name": "ERC721NonexistentToken",
      "type": "error"
    },
    {
      "anonymous": false,
      "inputs": [
        {
          "indexed": true,
          "internalType": "address",
          "name": "owner",
          "type": "address"
        },
        {
          "indexed": true,
          "internalType": "address",
          "name": "approved",
          "type": "address"
        },
        {
          "indexed": true,
          "internalType": "uint256",
          "name": "tokenId",
          "type": "uint256"
        }
      ],
      "name": "Approval",
      "type": "event"
    },
    {
      "anonymous": false,
      "inputs": [
        {
          "indexed": true,
          "internalType": "address",
          "name": "owner",
          "type": "address"
        },
        {
          "indexed": true,
          "internalType": "address",
          "name": "operator",
          "type": "address"
        },
        {
          "indexed": false,
          "internalType": "bool",
          "name": "approved",
          "type": "bool"
        }
      ],
      "name": "ApprovalForAll",
      "type": "event"
    },
    {
      "anonymous": false,
      "inputs": [
        {
          "indexed": false,
          "internalType": "uint256",
          "name": "_fromTokenId",
          "type": "uint256"
        },
        {
          "indexed": false,
          "internalType": "uint256",
          "name": "_toTokenId",
          "type": "uint256"
        }
      ],
      "name": "BatchMetadataUpdate",
      "type": "event"
    },
    {
      "anonymous": false,
      "inputs": [
        {
          "indexed": true,
          "internalType": "uint256",
          "name": "tokenId",
          "type": "uint256"
        },
        {
          "indexed": false,
          "internalType": "address",
          "name": "seller",
          "type": "address"
        },
        {
          "indexed": false,
          "internalType": "address",
          "name": "owner",
          "type": "address"
        },
        {
          "indexed": false,
          "internalType": "uint256",
          "name": "price",
          "type": "uint256"
        },
        {
          "indexed": false,
          "internalType": "bool",
          "name": "sold",
          "type": "bool"
        }
      ],
      "name": "IdMarketItemCreate",
      "type": "event"
    },
    {
      "anonymous": false,
      "inputs": [
        {
          "indexed": false,
          "internalType": "uint256",
          "name": "_tokenId",
          "type": "uint256"
        }
      ],
      "name": "MetadataUpdate",
      "type": "event"
    },
    {
      "anonymous": false,
      "inputs": [
        {
          "indexed": true,
          "internalType": "address",
          "name": "from",
          "type": "address"
        },
        {
          "indexed": true,
          "internalType": "address",
          "name": "to",
          "type": "address"
        },
        {
          "indexed": true,
          "internalType": "uint256",
          "name": "tokenId",
          "type": "uint256"
        }
      ],
      "name": "Transfer",
      "type": "event"
    },
    {
      "inputs": [
        {
          "internalType": "address",
          "name": "to",
          "type": "address"
        },
        {
          "internalType": "uint256",
          "name": "tokenId",
          "type": "uint256"
        }
      ],
      "name": "approve",
      "outputs": [],
      "stateMutability": "nonpayable",
      "type": "function"
    },
    {
      "inputs": [
        {
          "internalType": "address",
          "name": "owner",
          "type": "address"
        }
      ],
      "name": "balanceOf",
      "outputs": [
        {
          "internalType": "uint256",
          "name": "",
          "type": "uint256"
        }
      ],
      "stateMutability": "view",
      "type": "function"
    },
    {
      "inputs": [
        {
          "internalType": "uint256",
          "name": "tokenId",
          "type": "uint256"
        }
      ],
      "name": "createMarketSale",
      "outputs": [],
      "stateMutability": "payable",
      "type": "function"
    },
    {
      "inputs": [
        {
          "internalType": "string",
          "name": "_tokenURI",
          "type": "string"
        },
        {
          "internalType": "uint256",
          "name": "price",
          "type": "uint256"
        }
      ],
      "name": "createTokenAndMarketItem",
      "outputs": [
        {
          "internalType": "uint256",
          "name": "",
          "type": "uint256"
        }
      ],
      "stateMutability": "payable",
      "type": "function"
    },
    {
      "inputs": [
        {
          "internalType": "uint256",
          "name": "tokenId",
          "type": "uint256"
        }
      ],
      "name": "getApproved",
      "outputs": [
        {
          "internalType": "address",
          "name": "",
          "type": "address"
        }
      ],
      "stateMutability": "view",
      "type": "function"
    },
    {
      "inputs": [],
      "name": "getListingPrice",
      "outputs": [
        {
          "internalType": "uint256",
          "name": "",
          "type": "uint256"
        }
      ],
      "stateMutability": "view",
      "type": "function"
    },
    {
      "inputs": [],
      "name": "getMarketItems",
      "outputs": [
        {
          "components": [
            {
              "internalType": "uint256",
              "name": "tokenId",
              "type": "uint256"
            },
            {
              "internalType": "address payable",
              "name": "seller",
              "type": "address"
            },
            {
              "internalType": "address payable",
              "name": "owner",
              "type": "address"
            },
            {
              "internalType": "uint256",
              "name": "price",
              "type": "uint256"
            },
            {
              "internalType": "bool",
              "name": "sold",
              "type": "bool"
            }
          ],
          "internalType": "struct NFTMarketplace.MarketItem[]",
          "name": "",
          "type": "tuple[]"
        }
      ],
      "stateMutability": "view",
      "type": "function"
    },
    {
      "inputs": [
        {
          "internalType": "address",
          "name": "seller",
          "type": "address"
        }
      ],
      "name": "getMyMarketItems",
      "outputs": [
        {
          "components": [
            {
              "internalType": "uint256",
              "name": "tokenId",
              "type": "uint256"
            },
            {
              "internalType": "address payable",
              "name": "seller",
              "type": "address"
            },
            {
              "internalType": "address payable",
              "name": "owner",
              "type": "address"
            },
            {
              "internalType": "uint256",
              "name": "price",
              "type": "uint256"
            },
            {
              "internalType": "bool",
              "name": "sold",
              "type": "bool"
            }
          ],
          "internalType": "struct NFTMarketplace.MarketItem[]",
          "name": "",
          "type": "tuple[]"
        }
      ],
      "stateMutability": "view",
      "type": "function"
    },
    {
      "inputs": [
        {
          "internalType": "address",
          "name": "owner",
          "type": "address"
        }
      ],
      "name": "getMyToken",
      "outputs": [
        {
          "components": [
            {
              "internalType": "uint256",
              "name": "tokenId",
              "type": "uint256"
            },
            {
              "internalType": "address payable",
              "name": "seller",
              "type": "address"
            },
            {
              "internalType": "address payable",
              "name": "owner",
              "type": "address"
            },
            {
              "internalType": "uint256",
              "name": "price",
              "type": "uint256"
            },
            {
              "internalType": "bool",
              "name": "sold",
              "type": "bool"
            }
          ],
          "internalType": "struct NFTMarketplace.MarketItem[]",
          "name": "",
          "type": "tuple[]"
        }
      ],
      "stateMutability": "view",
      "type": "function"
    },
    {
      "inputs": [
        {
          "internalType": "address",
          "name": "owner",
          "type": "address"
        },
        {
          "internalType": "address",
          "name": "operator",
          "type": "address"
        }
      ],
      "name": "isApprovedForAll",
      "outputs": [
        {
          "internalType": "bool",
          "name": "",
          "type": "bool"
        }
      ],
      "stateMutability": "view",
      "type": "function"
    },
    {
      "inputs": [],
      "name": "name",
      "outputs": [
        {
          "internalType": "string",
          "name": "",
          "type": "string"
        }
      ],
      "stateMutability": "view",
      "type": "function"
    },
    {
      "inputs": [
        {
          "internalType": "uint256",
          "name": "tokenId",
          "type": "uint256"
        }
      ],
      "name": "ownerOf",
      "outputs": [
        {
          "internalType": "address",
          "name": "",
          "type": "address"
        }
      ],
      "stateMutability": "view",
      "type": "function"
    },
    {
      "inputs": [
        {
          "internalType": "uint256",
          "name": "tokenId",
          "type": "uint256"
        },
        {
          "internalType": "uint256",
          "name": "price",
          "type": "uint256"
        }
      ],
      "name": "resellToken",
      "outputs": [],
      "stateMutability": "payable",
      "type": "function"
    },
    {
      "inputs": [
        {
          "internalType": "address",
          "name": "from",
          "type": "address"
        },
        {
          "internalType": "address",
          "name": "to",
          "type": "address"
        },
        {
          "internalType": "uint256",
          "name": "tokenId",
          "type": "uint256"
        }
      ],
      "name": "safeTransferFrom",
      "outputs": [],
      "stateMutability": "nonpayable",
      "type": "function"
    },
    {
      "inputs": [
        {
          "internalType": "address",
          "name": "from",
          "type": "address"
        },
        {
          "internalType": "address",
          "name": "to",
          "type": "address"
        },
        {
          "internalType": "uint256",
          "name": "tokenId",
          "type": "uint256"
        },
        {
          "internalType": "bytes",
          "name": "data",
          "type": "bytes"
        }
      ],
      "name": "safeTransferFrom",
      "outputs": [],
      "stateMutability": "nonpayable",
      "type": "function"
    },
    {
      "inputs": [
        {
          "internalType": "address",
          "name": "operator",
          "type": "address"
        },
        {
          "internalType": "bool",
          "name": "approved",
          "type": "bool"
        }
      ],
      "name": "setApprovalForAll",
      "outputs": [],
      "stateMutability": "nonpayable",
      "type": "function"
    },
    {
      "inputs": [
        {
          "internalType": "bytes4",
          "name": "interfaceId",
          "type": "bytes4"
        }
      ],
      "name": "supportsInterface",
      "outputs": [
        {
          "internalType": "bool",
          "name": "",
          "type": "bool"
        }
      ],
      "stateMutability": "view",
      "type": "function"
    },
    {
      "inputs": [],
      "name": "symbol",
      "outputs": [
        {
          "internalType": "string",
          "name": "",
          "type": "string"
        }
      ],
      "stateMutability": "view",
      "type": "function"
    },
    {
      "inputs": [
        {
          "internalType": "uint256",
          "name": "tokenId",
          "type": "uint256"
        }
      ],
      "name": "tokenURI",
      "outputs": [
        {
          "internalType": "string",
          "name": "",
          "type": "string"
        }
      ],
      "stateMutability": "view",
      "type": "function"
    },
    {
      "inputs": [
        {
          "internalType": "address",
          "name": "from",
          "type": "address"
        },
        {
          "internalType": "address",
          "name": "to",
          "type": "address"
        },
        {
          "internalType": "uint256",
          "name": "tokenId",
          "type": "uint256"
        }
      ],
      "name": "transferFrom",
      "outputs": [],
      "stateMutability": "nonpayable",
      "type": "function"
    },
    {
      "inputs": [
        {
          "internalType": "uint256",
          "name": "_listingPrice",
          "type": "uint256"
        }
      ],
      "name": "updateListingPrice",
      "outputs": [],
      "stateMutability": "payable",
      "type": "function"
    }
  ],
  "bytecode": "0x60806040526605543df729c0006009553480156200001c57600080fd5b506040518060400160405280600d81526020017f53616e646265616368204e4654000000000000000000000000000000000000008152506040518060400160405280600381526020017f53424e000000000000000000000000000000000000000000000000000000000081525081600090816200009a919062000380565b508060019081620000ac919062000380565b5050506000600781905550600060088190555033600a60006101000a81548173ffffffffffffffffffffffffffffffffffffffff021916908373ffffffffffffffffffffffffffffffffffffffff16021790555062000467565b600081519050919050565b7f4e487b7100000000000000000000000000000000000000000000000000000000600052604160045260246000fd5b7f4e487b7100000000000000000000000000000000000000000000000000000000600052602260045260246000fd5b600060028204905060018216806200018857607f821691505b6020821081036200019e576200019d62000140565b5b50919050565b60008190508160005260206000209050919050565b60006020601f8301049050919050565b600082821b905092915050565b600060088302620002087fffffffffffffffffffffffffffffffffffffffffffffffffffffffffffffffff82620001c9565b620002148683620001c9565b95508019841693508086168417925050509392505050565b6000819050919050565b6000819050919050565b6000620002616200025b62000255846200022c565b62000236565b6200022c565b9050919050565b6000819050919050565b6200027d8362000240565b620002956200028c8262000268565b848454620001d6565b825550505050565b600090565b620002ac6200029d565b620002b981848462000272565b505050565b5b81811015620002e157620002d5600082620002a2565b600181019050620002bf565b5050565b601f8211156200033057620002fa81620001a4565b6200030584620001b9565b8101602085101562000315578190505b6200032d6200032485620001b9565b830182620002be565b50505b505050565b600082821c905092915050565b6000620003556000198460080262000335565b1980831691505092915050565b600062000370838362000342565b9150826002028217905092915050565b6200038b8262000106565b67ffffffffffffffff811115620003a757620003a662000111565b5b620003b382546200016f565b620003c0828285620002e5565b600060209050601f831160018114620003f85760008415620003e3578287015190505b620003ef858262000362565b8655506200045f565b601f1984166200040886620001a4565b60005b8281101562000432578489015182556001820191506020850194506020810190506200040b565b868310156200045257848901516200044e601f89168262000342565b8355505b6001600288020188555050505b505050505050565b613d0080620004776000396000f3fe60806040526004361061012a5760003560e01c80636d8abdb7116100ab578063b88d4fde1161006f578063b88d4fde146103fc578063be9af53614610425578063c87b56dd14610441578063cea0ce9f1461047e578063e219fc75146104bb578063e985e9c5146104d75761012a565b80636d8abdb71461031257806370a082311461034f57806395d89b411461038c578063a22cb465146103b7578063ae677aa3146103e05761012a565b806312e85585116100f257806312e855851461022d57806323b872dd1461025857806329aa3a421461028157806342842e0e146102ac5780636352211e146102d55761012a565b806301ffc9a71461012f5780630233e62c1461016c57806306fdde031461019c578063081812fc146101c7578063095ea7b314610204575b600080fd5b34801561013b57600080fd5b5061015660048036038101906101519190612b69565b610514565b6040516101639190612bb1565b60405180910390f35b61018660048036038101906101819190612d48565b610575565b6040516101939190612db3565b60405180910390f35b3480156101a857600080fd5b506101b1610602565b6040516101be9190612e4d565b60405180910390f35b3480156101d357600080fd5b506101ee60048036038101906101e99190612e6f565b610694565b6040516101fb9190612edd565b60405180910390f35b34801561021057600080fd5b5061022b60048036038101906102269190612f24565b6106b0565b005b34801561023957600080fd5b506102426106c6565b60405161024f9190612db3565b60405180910390f35b34801561026457600080fd5b5061027f600480360381019061027a9190612f64565b6106d0565b005b34801561028d57600080fd5b506102966107d2565b6040516102a3919061310d565b60405180910390f35b3480156102b857600080fd5b506102d360048036038101906102ce9190612f64565b6109f8565b005b3480156102e157600080fd5b506102fc60048036038101906102f79190612e6f565b610a18565b6040516103099190612edd565b60405180910390f35b34801561031e57600080fd5b506103396004803603810190610334919061312f565b610a2a565b604051610346919061310d565b60405180910390f35b34801561035b57600080fd5b506103766004803603810190610371919061312f565b610cd2565b6040516103839190612db3565b60405180910390f35b34801561039857600080fd5b506103a1610d8c565b6040516103ae9190612e4d565b60405180910390f35b3480156103c357600080fd5b506103de60048036038101906103d99190613188565b610e1e565b005b6103fa60048036038101906103f59190612e6f565b610e34565b005b34801561040857600080fd5b50610423600480360381019061041e9190613269565b610ece565b005b61043f600480360381019061043a9190612e6f565b610eeb565b005b34801561044d57600080fd5b5061046860048036038101906104639190612e6f565b61123a565b6040516104759190612e4d565b60405180910390f35b34801561048a57600080fd5b506104a560048036038101906104a0919061312f565b61134d565b6040516104b2919061310d565b60405180910390f35b6104d560048036038101906104d091906132ec565b6115f5565b005b3480156104e357600080fd5b506104fe60048036038101906104f9919061332c565b6117f8565b60405161050b9190612bb1565b60405180910390f35b6000634906490660e01b7bffffffffffffffffffffffffffffffffffffffffffffffffffffffff1916827bffffffffffffffffffffffffffffffffffffffffffffffffffffffff1916148061056e575061056d8261188c565b5b9050919050565b600060095434146105bb576040517f08c379a00000000000000000000000000000000000000000000000000000000081526004016105b2906133b8565b60405180910390fd5b600060075490506105cc338261196e565b6105d68185611a67565b6105e08184611ac3565b600760008154809291906105f390613407565b91905055508091505092915050565b6060600080546106119061347e565b80601f016020809104026020016040519081016040528092919081815260200182805461063d9061347e565b801561068a5780601f1061065f5761010080835404028352916020019161068a565b820191906000526020600020905b81548152906001019060200180831161066d57829003601f168201915b5050505050905090565b600061069f82611c82565b506106a982611d0a565b9050919050565b6106c282826106bd611d47565b611d4f565b5050565b6000600954905090565b600073ffffffffffffffffffffffffffffffffffffffff168273ffffffffffffffffffffffffffffffffffffffff16036107425760006040517f64a0ae920000000000000000000000000000000000000000000000000000000081526004016107399190612edd565b60405180910390fd5b60006107568383610751611d47565b611d61565b90508373ffffffffffffffffffffffffffffffffffffffff168173ffffffffffffffffffffffffffffffffffffffff16146107cc578382826040517f64283d7b0000000000000000000000000000000000000000000000000000000081526004016107c3939291906134af565b60405180910390fd5b50505050565b6060600060075490506000600854826107eb91906134e6565b90506000808267ffffffffffffffff81111561080a57610809612be7565b5b60405190808252806020026020018201604052801561084357816020015b610830612aa0565b8152602001906001900390816108285790505b50905060005b848110156109ed573073ffffffffffffffffffffffffffffffffffffffff16600b600083815260200190815260200160002060020160009054906101000a900473ffffffffffffffffffffffffffffffffffffffff1673ffffffffffffffffffffffffffffffffffffffff16036109e057600b60008281526020019081526020016000206040518060a0016040529081600082015481526020016001820160009054906101000a900473ffffffffffffffffffffffffffffffffffffffff1673ffffffffffffffffffffffffffffffffffffffff1673ffffffffffffffffffffffffffffffffffffffff1681526020016002820160009054906101000a900473ffffffffffffffffffffffffffffffffffffffff1673ffffffffffffffffffffffffffffffffffffffff1673ffffffffffffffffffffffffffffffffffffffff168152602001600382015481526020016004820160009054906101000a900460ff1615151515815250508284815181106109c6576109c561351a565b5b602002602001018190525082806109dc90613407565b9350505b8080600101915050610849565b508094505050505090565b610a1383838360405180602001604052806000815250610ece565b505050565b6000610a2382611c82565b9050919050565b6060600060075490506000805b82811015610ac4578473ffffffffffffffffffffffffffffffffffffffff16600b600083815260200190815260200160002060010160009054906101000a900473ffffffffffffffffffffffffffffffffffffffff1673ffffffffffffffffffffffffffffffffffffffff1603610ab7578180610ab390613407565b9250505b8080600101915050610a37565b506000808267ffffffffffffffff811115610ae257610ae1612be7565b5b604051908082528060200260200182016040528015610b1b57816020015b610b08612aa0565b815260200190600190039081610b005790505b50905060005b84811015610cc5578673ffffffffffffffffffffffffffffffffffffffff16600b600083815260200190815260200160002060010160009054906101000a900473ffffffffffffffffffffffffffffffffffffffff1673ffffffffffffffffffffffffffffffffffffffff1603610cb857600b60008281526020019081526020016000206040518060a0016040529081600082015481526020016001820160009054906101000a900473ffffffffffffffffffffffffffffffffffffffff1673ffffffffffffffffffffffffffffffffffffffff1673ffffffffffffffffffffffffffffffffffffffff1681526020016002820160009054906101000a900473ffffffffffffffffffffffffffffffffffffffff1673ffffffffffffffffffffffffffffffffffffffff1673ffffffffffffffffffffffffffffffffffffffff168152602001600382015481526020016004820160009054906101000a900460ff161515151581525050828481518110610c9e57610c9d61351a565b5b60200260200101819052508280610cb490613407565b9350505b8080600101915050610b21565b5080945050505050919050565b60008073ffffffffffffffffffffffffffffffffffffffff168273ffffffffffffffffffffffffffffffffffffffff1603610d455760006040517f89c62b64000000000000000000000000000000000000000000000000000000008152600401610d3c9190612edd565b60405180910390fd5b600360008373ffffffffffffffffffffffffffffffffffffffff1673ffffffffffffffffffffffffffffffffffffffff168152602001908152602001600020549050919050565b606060018054610d9b9061347e565b80601f0160208091040260200160405190810160405280929190818152602001828054610dc79061347e565b8015610e145780601f10610de957610100808354040283529160200191610e14565b820191906000526020600020905b815481529060010190602001808311610df757829003601f168201915b5050505050905090565b610e30610e29611d47565b8383611f7b565b5050565b600a60009054906101000a900473ffffffffffffffffffffffffffffffffffffffff1673ffffffffffffffffffffffffffffffffffffffff163373ffffffffffffffffffffffffffffffffffffffff1614610ec4576040517f08c379a0000000000000000000000000000000000000000000000000000000008152600401610ebb90613595565b60405180910390fd5b8060098190555050565b610ed98484846106d0565b610ee5848484846120ea565b50505050565b600b6000828152602001908152602001600020600301543414610f43576040517f08c379a0000000000000000000000000000000000000000000000000000000008152600401610f3a9061364d565b60405180910390fd5b600073ffffffffffffffffffffffffffffffffffffffff16600b600083815260200190815260200160002060020160009054906101000a900473ffffffffffffffffffffffffffffffffffffffff1673ffffffffffffffffffffffffffffffffffffffff1603610fe8576040517f08c379a0000000000000000000000000000000000000000000000000000000008152600401610fdf906136b9565b60405180910390fd5b60001515600b600083815260200190815260200160002060040160009054906101000a900460ff16151514611052576040517f08c379a000000000000000000000000000000000000000000000000000000000815260040161104990613725565b60405180910390fd5b33600b600083815260200190815260200160002060020160006101000a81548173ffffffffffffffffffffffffffffffffffffffff021916908373ffffffffffffffffffffffffffffffffffffffff1602179055506000600b600083815260200190815260200160002060010160006101000a81548173ffffffffffffffffffffffffffffffffffffffff021916908373ffffffffffffffffffffffffffffffffffffffff1602179055506001600b600083815260200190815260200160002060040160006101000a81548160ff0219169083151502179055506008600081548092919061113f90613407565b919050555061114f3033836122a1565b600a60009054906101000a900473ffffffffffffffffffffffffffffffffffffffff1673ffffffffffffffffffffffffffffffffffffffff166108fc6009549081150290604051600060405180830381858888f193505050501580156111b9573d6000803e3d6000fd5b50600b600082815260200190815260200160002060020160009054906101000a900473ffffffffffffffffffffffffffffffffffffffff1673ffffffffffffffffffffffffffffffffffffffff166108fc349081150290604051600060405180830381858888f19350505050158015611236573d6000803e3d6000fd5b5050565b606061124582611c82565b5060006006600084815260200190815260200160002080546112669061347e565b80601f01602080910402602001604051908101604052809291908181526020018280546112929061347e565b80156112df5780601f106112b4576101008083540402835291602001916112df565b820191906000526020600020905b8154815290600101906020018083116112c257829003601f168201915b5050505050905060006112f061240e565b90506000815103611305578192505050611348565b60008251111561133a578082604051602001611322929190613781565b60405160208183030381529060405292505050611348565b61134384612425565b925050505b919050565b6060600060075490506000805b828110156113e7578473ffffffffffffffffffffffffffffffffffffffff16600b600083815260200190815260200160002060020160009054906101000a900473ffffffffffffffffffffffffffffffffffffffff1673ffffffffffffffffffffffffffffffffffffffff16036113da5781806113d690613407565b9250505b808060010191505061135a565b506000808267ffffffffffffffff81111561140557611404612be7565b5b60405190808252806020026020018201604052801561143e57816020015b61142b612aa0565b8152602001906001900390816114235790505b50905060005b848110156115e8578673ffffffffffffffffffffffffffffffffffffffff16600b600083815260200190815260200160002060020160009054906101000a900473ffffffffffffffffffffffffffffffffffffffff1673ffffffffffffffffffffffffffffffffffffffff16036115db57600b60008281526020019081526020016000206040518060a0016040529081600082015481526020016001820160009054906101000a900473ffffffffffffffffffffffffffffffffffffffff1673ffffffffffffffffffffffffffffffffffffffff1673ffffffffffffffffffffffffffffffffffffffff1681526020016002820160009054906101000a900473ffffffffffffffffffffffffffffffffffffffff1673ffffffffffffffffffffffffffffffffffffffff1673ffffffffffffffffffffffffffffffffffffffff168152602001600382015481526020016004820160009054906101000a900460ff1615151515815250508284815181106115c1576115c061351a565b5b602002602001018190525082806115d790613407565b9350505b8080600101915050611444565b5080945050505050919050565b6009543414611639576040517f08c379a0000000000000000000000000000000000000000000000000000000008152600401611630906133b8565b60405180910390fd5b600b600083815260200190815260200160002060020160009054906101000a900473ffffffffffffffffffffffffffffffffffffffff1673ffffffffffffffffffffffffffffffffffffffff163373ffffffffffffffffffffffffffffffffffffffff16146116dd576040517f08c379a00000000000000000000000000000000000000000000000000000000081526004016116d490613817565b60405180910390fd5b33600b600084815260200190815260200160002060010160006101000a81548173ffffffffffffffffffffffffffffffffffffffff021916908373ffffffffffffffffffffffffffffffffffffffff16021790555030600b600084815260200190815260200160002060020160006101000a81548173ffffffffffffffffffffffffffffffffffffffff021916908373ffffffffffffffffffffffffffffffffffffffff16021790555080600b6000848152602001908152602001600020600301819055506000600b600084815260200190815260200160002060040160006101000a81548160ff021916908315150217905550600860008154809291906117e490613837565b91905055506117f43330846122a1565b5050565b6000600560008473ffffffffffffffffffffffffffffffffffffffff1673ffffffffffffffffffffffffffffffffffffffff16815260200190815260200160002060008373ffffffffffffffffffffffffffffffffffffffff1673ffffffffffffffffffffffffffffffffffffffff16815260200190815260200160002060009054906101000a900460ff16905092915050565b60007f80ac58cd000000000000000000000000000000000000000000000000000000007bffffffffffffffffffffffffffffffffffffffffffffffffffffffff1916827bffffffffffffffffffffffffffffffffffffffffffffffffffffffff1916148061195757507f5b5e139f000000000000000000000000000000000000000000000000000000007bffffffffffffffffffffffffffffffffffffffffffffffffffffffff1916827bffffffffffffffffffffffffffffffffffffffffffffffffffffffff1916145b8061196757506119668261248e565b5b9050919050565b600073ffffffffffffffffffffffffffffffffffffffff168273ffffffffffffffffffffffffffffffffffffffff16036119e05760006040517f64a0ae920000000000000000000000000000000000000000000000000000000081526004016119d79190612edd565b60405180910390fd5b60006119ee83836000611d61565b9050600073ffffffffffffffffffffffffffffffffffffffff168173ffffffffffffffffffffffffffffffffffffffff1614611a625760006040517f73c6ac6e000000000000000000000000000000000000000000000000000000008152600401611a599190612edd565b60405180910390fd5b505050565b80600660008481526020019081526020016000209081611a879190613a0c565b507ff8e1a15aba9398e019f0b49df1a4fde98ee17ae345cb5f6b5e2c27f5033e8ce782604051611ab79190612db3565b60405180910390a15050565b60008111611b06576040517f08c379a0000000000000000000000000000000000000000000000000000000008152600401611afd90613b2a565b60405180910390fd5b6040518060a001604052808381526020013373ffffffffffffffffffffffffffffffffffffffff1681526020013073ffffffffffffffffffffffffffffffffffffffff16815260200182815260200160001515815250600b60008481526020019081526020016000206000820151816000015560208201518160010160006101000a81548173ffffffffffffffffffffffffffffffffffffffff021916908373ffffffffffffffffffffffffffffffffffffffff16021790555060408201518160020160006101000a81548173ffffffffffffffffffffffffffffffffffffffff021916908373ffffffffffffffffffffffffffffffffffffffff1602179055506060820151816003015560808201518160040160006101000a81548160ff021916908315150217905550905050817feafc27c2d269c15316bdbdb4ca6463686ab4e25209cfb6e9f3b12aca806abb333330846000604051611c6b9493929190613b4a565b60405180910390a2611c7e3330846122a1565b5050565b600080611c8e836124f8565b9050600073ffffffffffffffffffffffffffffffffffffffff168173ffffffffffffffffffffffffffffffffffffffff1603611d0157826040517f7e273289000000000000000000000000000000000000000000000000000000008152600401611cf89190612db3565b60405180910390fd5b80915050919050565b60006004600083815260200190815260200160002060009054906101000a900473ffffffffffffffffffffffffffffffffffffffff169050919050565b600033905090565b611d5c8383836001612535565b505050565b600080611d6d846124f8565b9050600073ffffffffffffffffffffffffffffffffffffffff168373ffffffffffffffffffffffffffffffffffffffff1614611daf57611dae8184866126fa565b5b600073ffffffffffffffffffffffffffffffffffffffff168173ffffffffffffffffffffffffffffffffffffffff1614611e4057611df1600085600080612535565b6001600360008373ffffffffffffffffffffffffffffffffffffffff1673ffffffffffffffffffffffffffffffffffffffff168152602001908152602001600020600082825403925050819055505b600073ffffffffffffffffffffffffffffffffffffffff168573ffffffffffffffffffffffffffffffffffffffff1614611ec3576001600360008773ffffffffffffffffffffffffffffffffffffffff1673ffffffffffffffffffffffffffffffffffffffff168152602001908152602001600020600082825401925050819055505b846002600086815260200190815260200160002060006101000a81548173ffffffffffffffffffffffffffffffffffffffff021916908373ffffffffffffffffffffffffffffffffffffffff160217905550838573ffffffffffffffffffffffffffffffffffffffff168273ffffffffffffffffffffffffffffffffffffffff167fddf252ad1be2c89b69c2b068fc378daa952ba7f163c4a11628f55a4df523b3ef60405160405180910390a4809150509392505050565b600073ffffffffffffffffffffffffffffffffffffffff168273ffffffffffffffffffffffffffffffffffffffff1603611fec57816040517f5b08ba18000000000000000000000000000000000000000000000000000000008152600401611fe39190612edd565b60405180910390fd5b80600560008573ffffffffffffffffffffffffffffffffffffffff1673ffffffffffffffffffffffffffffffffffffffff16815260200190815260200160002060008473ffffffffffffffffffffffffffffffffffffffff1673ffffffffffffffffffffffffffffffffffffffff16815260200190815260200160002060006101000a81548160ff0219169083151502179055508173ffffffffffffffffffffffffffffffffffffffff168373ffffffffffffffffffffffffffffffffffffffff167f17307eab39ab6107e8899845ad3d59bd9653f200f220920489ca2b5937696c31836040516120dd9190612bb1565b60405180910390a3505050565b60008373ffffffffffffffffffffffffffffffffffffffff163b111561229b578273ffffffffffffffffffffffffffffffffffffffff1663150b7a0261212e611d47565b8685856040518563ffffffff1660e01b81526004016121509493929190613be4565b6020604051808303816000875af192505050801561218c57506040513d601f19601f820116820180604052508101906121899190613c45565b60015b612210573d80600081146121bc576040519150601f19603f3d011682016040523d82523d6000602084013e6121c1565b606091505b50600081510361220857836040517f64a0ae920000000000000000000000000000000000000000000000000000000081526004016121ff9190612edd565b60405180910390fd5b805181602001fd5b63150b7a0260e01b7bffffffffffffffffffffffffffffffffffffffffffffffffffffffff1916817bffffffffffffffffffffffffffffffffffffffffffffffffffffffff19161461229957836040517f64a0ae920000000000000000000000000000000000000000000000000000000081526004016122909190612edd565b60405180910390fd5b505b50505050565b600073ffffffffffffffffffffffffffffffffffffffff168273ffffffffffffffffffffffffffffffffffffffff16036123135760006040517f64a0ae9200000000000000000000000000000000000000000000000000000000815260040161230a9190612edd565b60405180910390fd5b600061232183836000611d61565b9050600073ffffffffffffffffffffffffffffffffffffffff168173ffffffffffffffffffffffffffffffffffffffff160361239457816040517f7e27328900000000000000000000000000000000000000000000000000000000815260040161238b9190612db3565b60405180910390fd5b8373ffffffffffffffffffffffffffffffffffffffff168173ffffffffffffffffffffffffffffffffffffffff1614612408578382826040517f64283d7b0000000000000000000000000000000000000000000000000000000081526004016123ff939291906134af565b60405180910390fd5b50505050565b606060405180602001604052806000815250905090565b606061243082611c82565b50600061243b61240e565b9050600081511161245b5760405180602001604052806000815250612486565b80612465846127be565b604051602001612476929190613781565b6040516020818303038152906040525b915050919050565b60007f01ffc9a7000000000000000000000000000000000000000000000000000000007bffffffffffffffffffffffffffffffffffffffffffffffffffffffff1916827bffffffffffffffffffffffffffffffffffffffffffffffffffffffff1916149050919050565b60006002600083815260200190815260200160002060009054906101000a900473ffffffffffffffffffffffffffffffffffffffff169050919050565b808061256e5750600073ffffffffffffffffffffffffffffffffffffffff168273ffffffffffffffffffffffffffffffffffffffff1614155b156126a257600061257e84611c82565b9050600073ffffffffffffffffffffffffffffffffffffffff168373ffffffffffffffffffffffffffffffffffffffff16141580156125e957508273ffffffffffffffffffffffffffffffffffffffff168173ffffffffffffffffffffffffffffffffffffffff1614155b80156125fc57506125fa81846117f8565b155b1561263e57826040517fa9fbf51f0000000000000000000000000000000000000000000000000000000081526004016126359190612edd565b60405180910390fd5b81156126a057838573ffffffffffffffffffffffffffffffffffffffff168273ffffffffffffffffffffffffffffffffffffffff167f8c5be1e5ebec7d5bd14f71427d1e84f3dd0314c0f7b2291e5b200ac8c7c3b92560405160405180910390a45b505b836004600085815260200190815260200160002060006101000a81548173ffffffffffffffffffffffffffffffffffffffff021916908373ffffffffffffffffffffffffffffffffffffffff16021790555050505050565b61270583838361288c565b6127b957600073ffffffffffffffffffffffffffffffffffffffff168373ffffffffffffffffffffffffffffffffffffffff160361277a57806040517f7e2732890000000000000000000000000000000000000000000000000000000081526004016127719190612db3565b60405180910390fd5b81816040517f177e802f0000000000000000000000000000000000000000000000000000000081526004016127b0929190613c72565b60405180910390fd5b505050565b6060600060016127cd8461294d565b01905060008167ffffffffffffffff8111156127ec576127eb612be7565b5b6040519080825280601f01601f19166020018201604052801561281e5781602001600182028036833780820191505090505b509050600082602001820190505b600115612881578080600190039150507f3031323334353637383961626364656600000000000000000000000000000000600a86061a8153600a858161287557612874613c9b565b5b0494506000850361282c575b819350505050919050565b60008073ffffffffffffffffffffffffffffffffffffffff168373ffffffffffffffffffffffffffffffffffffffff161415801561294457508273ffffffffffffffffffffffffffffffffffffffff168473ffffffffffffffffffffffffffffffffffffffff161480612905575061290484846117f8565b5b8061294357508273ffffffffffffffffffffffffffffffffffffffff1661292b83611d0a565b73ffffffffffffffffffffffffffffffffffffffff16145b5b90509392505050565b600080600090507a184f03e93ff9f4daa797ed6e38ed64bf6a1f01000000000000000083106129ab577a184f03e93ff9f4daa797ed6e38ed64bf6a1f01000000000000000083816129a1576129a0613c9b565b5b0492506040810190505b6d04ee2d6d415b85acef810000000083106129e8576d04ee2d6d415b85acef810000000083816129de576129dd613c9b565b5b0492506020810190505b662386f26fc100008310612a1757662386f26fc100008381612a0d57612a0c613c9b565b5b0492506010810190505b6305f5e1008310612a40576305f5e1008381612a3657612a35613c9b565b5b0492506008810190505b6127108310612a65576127108381612a5b57612a5a613c9b565b5b0492506004810190505b60648310612a885760648381612a7e57612a7d613c9b565b5b0492506002810190505b600a8310612a97576001810190505b80915050919050565b6040518060a0016040528060008152602001600073ffffffffffffffffffffffffffffffffffffffff168152602001600073ffffffffffffffffffffffffffffffffffffffff168152602001600081526020016000151581525090565b6000604051905090565b600080fd5b600080fd5b60007fffffffff0000000000000000000000000000000000000000000000000000000082169050919050565b612b4681612b11565b8114612b5157600080fd5b50565b600081359050612b6381612b3d565b92915050565b600060208284031215612b7f57612b7e612b07565b5b6000612b8d84828501612b54565b91505092915050565b60008115159050919050565b612bab81612b96565b82525050565b6000602082019050612bc66000830184612ba2565b92915050565b600080fd5b600080fd5b6000601f19601f8301169050919050565b7f4e487b7100000000000000000000000000000000000000000000000000000000600052604160045260246000fd5b612c1f82612bd6565b810181811067ffffffffffffffff82111715612c3e57612c3d612be7565b5b80604052505050565b6000612c51612afd565b9050612c5d8282612c16565b919050565b600067ffffffffffffffff821115612c7d57612c7c612be7565b5b612c8682612bd6565b9050602081019050919050565b82818337600083830152505050565b6000612cb5612cb084612c62565b612c47565b905082815260208101848484011115612cd157612cd0612bd1565b5b612cdc848285612c93565b509392505050565b600082601f830112612cf957612cf8612bcc565b5b8135612d09848260208601612ca2565b91505092915050565b6000819050919050565b612d2581612d12565b8114612d3057600080fd5b50565b600081359050612d4281612d1c565b92915050565b60008060408385031215612d5f57612d5e612b07565b5b600083013567ffffffffffffffff811115612d7d57612d7c612b0c565b5b612d8985828601612ce4565b9250506020612d9a85828601612d33565b9150509250929050565b612dad81612d12565b82525050565b6000602082019050612dc86000830184612da4565b92915050565b600081519050919050565b600082825260208201905092915050565b60005b83811015612e08578082015181840152602081019050612ded565b60008484015250505050565b6000612e1f82612dce565b612e298185612dd9565b9350612e39818560208601612dea565b612e4281612bd6565b840191505092915050565b60006020820190508181036000830152612e678184612e14565b905092915050565b600060208284031215612e8557612e84612b07565b5b6000612e9384828501612d33565b91505092915050565b600073ffffffffffffffffffffffffffffffffffffffff82169050919050565b6000612ec782612e9c565b9050919050565b612ed781612ebc565b82525050565b6000602082019050612ef26000830184612ece565b92915050565b612f0181612ebc565b8114612f0c57600080fd5b50565b600081359050612f1e81612ef8565b92915050565b60008060408385031215612f3b57612f3a612b07565b5b6000612f4985828601612f0f565b9250506020612f5a85828601612d33565b9150509250929050565b600080600060608486031215612f7d57612f7c612b07565b5b6000612f8b86828701612f0f565b9350506020612f9c86828701612f0f565b9250506040612fad86828701612d33565b9150509250925092565b600081519050919050565b600082825260208201905092915050565b6000819050602082019050919050565b612fec81612d12565b82525050565b6000612ffd82612e9c565b9050919050565b61300d81612ff2565b82525050565b61301c81612b96565b82525050565b60a0820160008201516130386000850182612fe3565b50602082015161304b6020850182613004565b50604082015161305e6040850182613004565b5060608201516130716060850182612fe3565b5060808201516130846080850182613013565b50505050565b60006130968383613022565b60a08301905092915050565b6000602082019050919050565b60006130ba82612fb7565b6130c48185612fc2565b93506130cf83612fd3565b8060005b838110156131005781516130e7888261308a565b97506130f2836130a2565b9250506001810190506130d3565b5085935050505092915050565b6000602082019050818103600083015261312781846130af565b905092915050565b60006020828403121561314557613144612b07565b5b600061315384828501612f0f565b91505092915050565b61316581612b96565b811461317057600080fd5b50565b6000813590506131828161315c565b92915050565b6000806040838503121561319f5761319e612b07565b5b60006131ad85828601612f0f565b92505060206131be85828601613173565b9150509250929050565b600067ffffffffffffffff8211156131e3576131e2612be7565b5b6131ec82612bd6565b9050602081019050919050565b600061320c613207846131c8565b612c47565b90508281526020810184848401111561322857613227612bd1565b5b613233848285612c93565b509392505050565b600082601f8301126132505761324f612bcc565b5b81356132608482602086016131f9565b91505092915050565b6000806000806080858703121561328357613282612b07565b5b600061329187828801612f0f565b94505060206132a287828801612f0f565b93505060406132b387828801612d33565b925050606085013567ffffffffffffffff8111156132d4576132d3612b0c565b5b6132e08782880161323b565b91505092959194509250565b6000806040838503121561330357613302612b07565b5b600061331185828601612d33565b925050602061332285828601612d33565b9150509250929050565b6000806040838503121561334357613342612b07565b5b600061335185828601612f0f565b925050602061336285828601612f0f565b9150509250929050565b7f466565206d75737420626520657175616c206c697374696e6720707269636521600082015250565b60006133a2602083612dd9565b91506133ad8261336c565b602082019050919050565b600060208201905081810360008301526133d181613395565b9050919050565b7f4e487b7100000000000000000000000000000000000000000000000000000000600052601160045260246000fd5b600061341282612d12565b91507fffffffffffffffffffffffffffffffffffffffffffffffffffffffffffffffff8203613444576134436133d8565b5b600182019050919050565b7f4e487b7100000000000000000000000000000000000000000000000000000000600052602260045260246000fd5b6000600282049050600182168061349657607f821691505b6020821081036134a9576134a861344f565b5b50919050565b60006060820190506134c46000830186612ece565b6134d16020830185612da4565b6134de6040830184612ece565b949350505050565b60006134f182612d12565b91506134fc83612d12565b9250828203905081811115613514576135136133d8565b5b92915050565b7f4e487b7100000000000000000000000000000000000000000000000000000000600052603260045260246000fd5b7f4e6f74206f776e65722100000000000000000000000000000000000000000000600082015250565b600061357f600a83612dd9565b915061358a82613549565b602082019050919050565b600060208201905081810360008301526135ae81613572565b9050919050565b7f506c65617365207375626d6974207468652061736b696e67207072696365206960008201527f6e206f7264657220746f20636f6d706c6574652074686520707572636861736560208201527f2100000000000000000000000000000000000000000000000000000000000000604082015250565b6000613637604183612dd9565b9150613642826135b5565b606082019050919050565b600060208201905081810360008301526136668161362a565b9050919050565b7f4e465420646f6573206e6f742065786973742100000000000000000000000000600082015250565b60006136a3601383612dd9565b91506136ae8261366d565b602082019050919050565b600060208201905081810360008301526136d281613696565b9050919050565b7f4e465420616c726561647920736f6c6421000000000000000000000000000000600082015250565b600061370f601183612dd9565b915061371a826136d9565b602082019050919050565b6000602082019050818103600083015261373e81613702565b9050919050565b600081905092915050565b600061375b82612dce565b6137658185613745565b9350613775818560208601612dea565b80840191505092915050565b600061378d8285613750565b91506137998284613750565b91508190509392505050565b7f4f6e6c79206974656d206f776e65722063616e20706572666f726d207468697360008201527f206f7065726174696f6e21000000000000000000000000000000000000000000602082015250565b6000613801602b83612dd9565b915061380c826137a5565b604082019050919050565b60006020820190508181036000830152613830816137f4565b9050919050565b600061384282612d12565b915060008203613855576138546133d8565b5b600182039050919050565b60008190508160005260206000209050919050565b60006020601f8301049050919050565b600082821b905092915050565b6000600883026138c27fffffffffffffffffffffffffffffffffffffffffffffffffffffffffffffffff82613885565b6138cc8683613885565b95508019841693508086168417925050509392505050565b6000819050919050565b60006139096139046138ff84612d12565b6138e4565b612d12565b9050919050565b6000819050919050565b613923836138ee565b61393761392f82613910565b848454613892565b825550505050565b600090565b61394c61393f565b61395781848461391a565b505050565b5b8181101561397b57613970600082613944565b60018101905061395d565b5050565b601f8211156139c05761399181613860565b61399a84613875565b810160208510156139a9578190505b6139bd6139b585613875565b83018261395c565b50505b505050565b600082821c905092915050565b60006139e3600019846008026139c5565b1980831691505092915050565b60006139fc83836139d2565b9150826002028217905092915050565b613a1582612dce565b67ffffffffffffffff811115613a2e57613a2d612be7565b5b613a38825461347e565b613a4382828561397f565b600060209050601f831160018114613a765760008415613a64578287015190505b613a6e85826139f0565b865550613ad6565b601f198416613a8486613860565b60005b82811015613aac57848901518255600182019150602085019450602081019050613a87565b86831015613ac95784890151613ac5601f8916826139d2565b8355505b6001600288020188555050505b505050505050565b7f5072696365206d757374206d6f7265207468616e207a65726f21000000000000600082015250565b6000613b14601a83612dd9565b9150613b1f82613ade565b602082019050919050565b60006020820190508181036000830152613b4381613b07565b9050919050565b6000608082019050613b5f6000830187612ece565b613b6c6020830186612ece565b613b796040830185612da4565b613b866060830184612ba2565b95945050505050565b600081519050919050565b600082825260208201905092915050565b6000613bb682613b8f565b613bc08185613b9a565b9350613bd0818560208601612dea565b613bd981612bd6565b840191505092915050565b6000608082019050613bf96000830187612ece565b613c066020830186612ece565b613c136040830185612da4565b8181036060830152613c258184613bab565b905095945050505050565b600081519050613c3f81612b3d565b92915050565b600060208284031215613c5b57613c5a612b07565b5b6000613c6984828501613c30565b91505092915050565b6000604082019050613c876000830185612ece565b613c946020830184612da4565b9392505050565b7f4e487b7100000000000000000000000000000000000000000000000000000000600052601260045260246000fdfea2646970667358221220b6fe7d3846bc96e5bd35c1f4887660cc89a81e1871146c690cdbc1b19ecb6dad64736f6c63430008180033",
  "linkReferences": {},
  "deployedLinkReferences": {}
}