{
  "_format": "hh-sol-artifact-1",
  "contractName": "TransferFunds",
  "sourceName": "contracts/TransferFunds.sol",
  "abi": [
    {
      "anonymous": false,
      "inputs": [
        {
          "indexed": true,
          "internalType": "address",
          "name": "from",
          "type": "address"
        },
        {
          "indexed": true,
          "internalType": "address",
          "name": "receiver",
          "type": "address"
        },
        {
          "indexed": false,
          "internalType": "uint256",
          "name": "amount",
          "type": "uint256"
        },
        {
          "indexed": false,
          "internalType": "string",
          "name": "message",
          "type": "string"
        },
        {
          "indexed": false,
          "internalType": "uint256",
          "name": "timestamp",
          "type": "uint256"
        }
      ],
      "name": "TransferEvent",
      "type": "event"
    },
    {
      "inputs": [
        {
          "internalType": "address payable",
          "name": "receiver",
          "type": "address"
        },
        {
          "internalType": "uint256",
          "name": "amount",
          "type": "uint256"
        },
        {
          "internalType": "string",
          "name": "message",
          "type": "string"
        }
      ],
      "name": "addDataToBlockchain",
      "outputs": [],
      "stateMutability": "nonpayable",
      "type": "function"
    },
    {
      "inputs": [],
      "name": "getAllTransactions",
      "outputs": [
        {
          "components": [
            {
              "internalType": "address",
              "name": "sender",
              "type": "address"
            },
            {
              "internalType": "address",
              "name": "receiver",
              "type": "address"
            },
            {
              "internalType": "uint256",
              "name": "amount",
              "type": "uint256"
            },
            {
              "internalType": "string",
              "name": "message",
              "type": "string"
            },
            {
              "internalType": "uint256",
              "name": "timestamp",
              "type": "uint256"
            }
          ],
          "internalType": "struct TransferFunds.TransferFundsStruct[]",
          "name": "",
          "type": "tuple[]"
        }
      ],
      "stateMutability": "view",
      "type": "function"
    },
    {
      "inputs": [],
      "name": "getTransactionCount",
      "outputs": [
        {
          "internalType": "uint256",
          "name": "",
          "type": "uint256"
        }
      ],
      "stateMutability": "view",
      "type": "function"
    }
  ],
  "bytecode": "0x608060405234801561001057600080fd5b50610cb8806100206000396000f3fe608060405234801561001057600080fd5b50600436106100415760003560e01c806327506f53146100465780632e7700f0146100645780633a0a073314610082575b600080fd5b61004e61009e565b60405161005b9190610637565b60405180910390f35b61006c61024f565b6040516100799190610668565b60405180910390f35b61009c60048036038101906100979190610836565b610258565b005b60606001805480602002602001604051908101604052809291908181526020016000905b8282101561024657838290600052602060002090600502016040518060a00160405290816000820160009054906101000a900473ffffffffffffffffffffffffffffffffffffffff1673ffffffffffffffffffffffffffffffffffffffff1673ffffffffffffffffffffffffffffffffffffffff1681526020016001820160009054906101000a900473ffffffffffffffffffffffffffffffffffffffff1673ffffffffffffffffffffffffffffffffffffffff1673ffffffffffffffffffffffffffffffffffffffff168152602001600282015481526020016003820180546101ab906108d4565b80601f01602080910402602001604051908101604052809291908181526020018280546101d7906108d4565b80156102245780601f106101f957610100808354040283529160200191610224565b820191906000526020600020905b81548152906001019060200180831161020757829003601f168201915b50505050508152602001600482015481525050815260200190600101906100c2565b50505050905090565b60008054905090565b60008081548092919061026a90610934565b919050555060016040518060a001604052803373ffffffffffffffffffffffffffffffffffffffff1681526020018573ffffffffffffffffffffffffffffffffffffffff16815260200184815260200183815260200142815250908060018154018082558091505060019003906000526020600020906005020160009091909190915060008201518160000160006101000a81548173ffffffffffffffffffffffffffffffffffffffff021916908373ffffffffffffffffffffffffffffffffffffffff16021790555060208201518160010160006101000a81548173ffffffffffffffffffffffffffffffffffffffff021916908373ffffffffffffffffffffffffffffffffffffffff16021790555060408201518160020155606082015181600301908161039a9190610b28565b506080820151816004015550508273ffffffffffffffffffffffffffffffffffffffff163373ffffffffffffffffffffffffffffffffffffffff167f3cf6265a3418fd153ac0fad02c457db25dda3d9006869d68880a17c525b626b384844260405161040893929190610c44565b60405180910390a3505050565b600081519050919050565b600082825260208201905092915050565b6000819050602082019050919050565b600073ffffffffffffffffffffffffffffffffffffffff82169050919050565b600061046c82610441565b9050919050565b61047c81610461565b82525050565b6000819050919050565b61049581610482565b82525050565b600081519050919050565b600082825260208201905092915050565b60005b838110156104d55780820151818401526020810190506104ba565b60008484015250505050565b6000601f19601f8301169050919050565b60006104fd8261049b565b61050781856104a6565b93506105178185602086016104b7565b610520816104e1565b840191505092915050565b600060a0830160008301516105436000860182610473565b5060208301516105566020860182610473565b506040830151610569604086018261048c565b506060830151848203606086015261058182826104f2565b9150506080830151610596608086018261048c565b508091505092915050565b60006105ad838361052b565b905092915050565b6000602082019050919050565b60006105cd82610415565b6105d78185610420565b9350836020820285016105e985610431565b8060005b85811015610625578484038952815161060685826105a1565b9450610611836105b5565b925060208a019950506001810190506105ed565b50829750879550505050505092915050565b6000602082019050818103600083015261065181846105c2565b905092915050565b61066281610482565b82525050565b600060208201905061067d6000830184610659565b92915050565b6000604051905090565b600080fd5b600080fd5b60006106a282610441565b9050919050565b6106b281610697565b81146106bd57600080fd5b50565b6000813590506106cf816106a9565b92915050565b6106de81610482565b81146106e957600080fd5b50565b6000813590506106fb816106d5565b92915050565b600080fd5b600080fd5b7f4e487b7100000000000000000000000000000000000000000000000000000000600052604160045260246000fd5b610743826104e1565b810181811067ffffffffffffffff821117156107625761076161070b565b5b80604052505050565b6000610775610683565b9050610781828261073a565b919050565b600067ffffffffffffffff8211156107a1576107a061070b565b5b6107aa826104e1565b9050602081019050919050565b82818337600083830152505050565b60006107d96107d484610786565b61076b565b9050828152602081018484840111156107f5576107f4610706565b5b6108008482856107b7565b509392505050565b600082601f83011261081d5761081c610701565b5b813561082d8482602086016107c6565b91505092915050565b60008060006060848603121561084f5761084e61068d565b5b600061085d868287016106c0565b935050602061086e868287016106ec565b925050604084013567ffffffffffffffff81111561088f5761088e610692565b5b61089b86828701610808565b9150509250925092565b7f4e487b7100000000000000000000000000000000000000000000000000000000600052602260045260246000fd5b600060028204905060018216806108ec57607f821691505b6020821081036108ff576108fe6108a5565b5b50919050565b7f4e487b7100000000000000000000000000000000000000000000000000000000600052601160045260246000fd5b600061093f82610482565b91507fffffffffffffffffffffffffffffffffffffffffffffffffffffffffffffffff820361097157610970610905565b5b600182019050919050565b60008190508160005260206000209050919050565b60006020601f8301049050919050565b600082821b905092915050565b6000600883026109de7fffffffffffffffffffffffffffffffffffffffffffffffffffffffffffffffff826109a1565b6109e886836109a1565b95508019841693508086168417925050509392505050565b6000819050919050565b6000610a25610a20610a1b84610482565b610a00565b610482565b9050919050565b6000819050919050565b610a3f83610a0a565b610a53610a4b82610a2c565b8484546109ae565b825550505050565b600090565b610a68610a5b565b610a73818484610a36565b505050565b5b81811015610a9757610a8c600082610a60565b600181019050610a79565b5050565b601f821115610adc57610aad8161097c565b610ab684610991565b81016020851015610ac5578190505b610ad9610ad185610991565b830182610a78565b50505b505050565b600082821c905092915050565b6000610aff60001984600802610ae1565b1980831691505092915050565b6000610b188383610aee565b9150826002028217905092915050565b610b318261049b565b67ffffffffffffffff811115610b4a57610b4961070b565b5b610b5482546108d4565b610b5f828285610a9b565b600060209050601f831160018114610b925760008415610b80578287015190505b610b8a8582610b0c565b865550610bf2565b601f198416610ba08661097c565b60005b82811015610bc857848901518255600182019150602085019450602081019050610ba3565b86831015610be55784890151610be1601f891682610aee565b8355505b6001600288020188555050505b505050505050565b600082825260208201905092915050565b6000610c168261049b565b610c208185610bfa565b9350610c308185602086016104b7565b610c39816104e1565b840191505092915050565b6000606082019050610c596000830186610659565b8181036020830152610c6b8185610c0b565b9050610c7a6040830184610659565b94935050505056fea26469706673582212206a47e489b0e98af82e5388aa569e0774c1e3dbe0f2ff0d6c08acb54e6005fe5964736f6c63430008180033",
  "linkReferences": {},
  "deployedLinkReferences": {}
}